{
  "contractName": "CourseMarketPlace",
  "abi": [
    {
      "inputs": [],
      "stateMutability": "nonpayable",
      "type": "constructor"
    },
    {
      "inputs": [],
      "name": "CourseHasOwner",
      "type": "error"
    },
    {
      "inputs": [],
      "name": "CourseIsNotCreated",
      "type": "error"
    },
    {
      "inputs": [],
      "name": "CourseIsNotPurchased",
      "type": "error"
    },
    {
      "inputs": [],
      "name": "RequesterIsNotOwner",
      "type": "error"
    },
    {
      "inputs": [],
      "name": "isStopped",
      "outputs": [
        {
          "internalType": "bool",
          "name": "",
          "type": "bool"
        }
      ],
      "stateMutability": "view",
      "type": "function",
      "constant": true
    },
    {
      "stateMutability": "payable",
      "type": "receive",
      "payable": true
    },
    {
      "inputs": [
        {
          "internalType": "uint256",
          "name": "withdrawAmount",
          "type": "uint256"
        }
      ],
      "name": "withdraw",
      "outputs": [],
      "stateMutability": "nonpayable",
      "type": "function"
    },
    {
      "inputs": [],
      "name": "emergencyWithdraw",
      "outputs": [],
      "stateMutability": "nonpayable",
      "type": "function"
    },
    {
      "inputs": [],
      "name": "selfDestruct",
      "outputs": [],
      "stateMutability": "nonpayable",
      "type": "function"
    },
    {
      "inputs": [],
      "name": "stopContract",
      "outputs": [],
      "stateMutability": "nonpayable",
      "type": "function"
    },
    {
      "inputs": [],
      "name": "resumeContract",
      "outputs": [],
      "stateMutability": "nonpayable",
      "type": "function"
    },
    {
      "inputs": [
        {
          "internalType": "bytes16",
          "name": "courseID",
          "type": "bytes16"
        },
        {
          "internalType": "bytes32",
          "name": "proof",
          "type": "bytes32"
        }
      ],
      "name": "purchaseCourse",
      "outputs": [],
      "stateMutability": "payable",
      "type": "function",
      "payable": true
    },
    {
      "inputs": [
        {
          "internalType": "bytes32",
          "name": "courseHash",
          "type": "bytes32"
        }
      ],
      "name": "repurchaseCourse",
      "outputs": [],
      "stateMutability": "payable",
      "type": "function",
      "payable": true
    },
    {
      "inputs": [
        {
          "internalType": "bytes32",
          "name": "courseHash",
          "type": "bytes32"
        }
      ],
      "name": "activateCourse",
      "outputs": [],
      "stateMutability": "nonpayable",
      "type": "function"
    },
    {
      "inputs": [
        {
          "internalType": "bytes32",
          "name": "courseHash",
          "type": "bytes32"
        }
      ],
      "name": "deactivateCourse",
      "outputs": [],
      "stateMutability": "nonpayable",
      "type": "function"
    },
    {
      "inputs": [
        {
          "internalType": "address",
          "name": "newOwner",
          "type": "address"
        }
      ],
      "name": "transferOwnership",
      "outputs": [],
      "stateMutability": "nonpayable",
      "type": "function"
    },
    {
      "inputs": [],
      "name": "getCourseCount",
      "outputs": [
        {
          "internalType": "uint256",
          "name": "",
          "type": "uint256"
        }
      ],
      "stateMutability": "view",
      "type": "function",
      "constant": true
    },
    {
      "inputs": [
        {
          "internalType": "uint256",
          "name": "index",
          "type": "uint256"
        }
      ],
      "name": "getCourseHashAtIndex",
      "outputs": [
        {
          "internalType": "bytes32",
          "name": "",
          "type": "bytes32"
        }
      ],
      "stateMutability": "view",
      "type": "function",
      "constant": true
    },
    {
      "inputs": [
        {
          "internalType": "bytes32",
          "name": "courseHash",
          "type": "bytes32"
        }
      ],
      "name": "getCourseByHash",
      "outputs": [
        {
          "components": [
            {
              "internalType": "uint256",
              "name": "id",
              "type": "uint256"
            },
            {
              "internalType": "uint256",
              "name": "price",
              "type": "uint256"
            },
            {
              "internalType": "bytes32",
              "name": "proof",
              "type": "bytes32"
            },
            {
              "internalType": "address",
              "name": "owner",
              "type": "address"
            },
            {
              "internalType": "enum CourseMarketPlace.State",
              "name": "state",
              "type": "uint8"
            }
          ],
          "internalType": "struct CourseMarketPlace.Course",
          "name": "",
          "type": "tuple"
        }
      ],
      "stateMutability": "view",
      "type": "function",
      "constant": true
    },
    {
      "inputs": [],
      "name": "getContractOwner",
      "outputs": [
        {
          "internalType": "address",
          "name": "",
          "type": "address"
        }
      ],
      "stateMutability": "view",
      "type": "function",
      "constant": true
    }
  ],
  "bytecode": "0x608060405260008060006101000a81548160ff02191690831515021790555034801561002a57600080fd5b5061003a3361003f60201b60201c565b610083565b80600460006101000a81548173ffffffffffffffffffffffffffffffffffffffff021916908373ffffffffffffffffffffffffffffffffffffffff16021790555050565b611a89806100926000396000f3fe6080604052600436106100ec5760003560e01c80636d11290b1161008a578063c4bc5da511610059578063c4bc5da5146102b8578063d76821cb146102cf578063db2e21bc146102eb578063f2fde38b14610302576100f3565b80636d11290b14610210578063935d7e6d1461024d57806396cfda06146102765780639cb8a26a146102a1576100f3565b80633f683b6a116100c65780633f683b6a14610161578063442890d51461018c5780636136e1eb146101b757806362e4e6ac146101d3576100f3565b806312253a6c146100f85780632e1a7d4d1461010f5780633926257214610138576100f3565b366100f357005b600080fd5b34801561010457600080fd5b5061010d61032b565b005b34801561011b57600080fd5b5061013660048036038101906101319190611242565b6103bc565b005b34801561014457600080fd5b5061015f600480360381019061015a91906112a5565b610503565b005b34801561016d57600080fd5b50610176610686565b60405161018391906112ed565b60405180910390f35b34801561019857600080fd5b506101a1610697565b6040516101ae9190611349565b60405180910390f35b6101d160048036038101906101cc91906112a5565b6106c1565b005b3480156101df57600080fd5b506101fa60048036038101906101f591906112a5565b610838565b6040516102079190611470565b60405180910390f35b34801561021c57600080fd5b5061023760048036038101906102329190611242565b610914565b604051610244919061149a565b60405180910390f35b34801561025957600080fd5b50610274600480360381019061026f91906112a5565b610931565b005b34801561028257600080fd5b5061028b610b93565b60405161029891906114c4565b60405180910390f35b3480156102ad57600080fd5b506102b6610b9d565b005b3480156102c457600080fd5b506102cd610c64565b005b6102e960048036038101906102e49190611537565b610cf5565b005b3480156102f757600080fd5b50610300610eae565b005b34801561030e57600080fd5b50610329600480360381019061032491906115a3565b61100b565b005b610333610697565b73ffffffffffffffffffffffffffffffffffffffff163373ffffffffffffffffffffffffffffffffffffffff16146103a0576040517f08c379a000000000000000000000000000000000000000000000000000000000815260040161039790611653565b60405180910390fd5b60016000806101000a81548160ff021916908315150217905550565b6103c4610697565b73ffffffffffffffffffffffffffffffffffffffff163373ffffffffffffffffffffffffffffffffffffffff1614610431576040517f08c379a000000000000000000000000000000000000000000000000000000000815260040161042890611653565b60405180910390fd5b6000600460009054906101000a900473ffffffffffffffffffffffffffffffffffffffff1673ffffffffffffffffffffffffffffffffffffffff1682604051610479906116a4565b60006040518083038185875af1925050503d80600081146104b6576040519150601f19603f3d011682016040523d82523d6000602084013e6104bb565b606091505b50509050806104ff576040517f08c379a00000000000000000000000000000000000000000000000000000000081526004016104f690611705565b60405180910390fd5b5050565b61050b610697565b73ffffffffffffffffffffffffffffffffffffffff163373ffffffffffffffffffffffffffffffffffffffff1614610578576040517f08c379a000000000000000000000000000000000000000000000000000000000815260040161056f90611653565b60405180910390fd5b60008054906101000a900460ff161561059057600080fd5b6105998161108c565b6105cf576040517f4db0c48300000000000000000000000000000000000000000000000000000000815260040160405180910390fd5b6000600260008381526020019081526020016000209050600060028111156105fa576105f9611391565b5b8160030160149054906101000a900460ff16600281111561061e5761061d611391565b5b14610655576040517f27214a3b00000000000000000000000000000000000000000000000000000000815260040160405180910390fd5b60018160030160146101000a81548160ff0219169083600281111561067d5761067c611391565b5b02179055505050565b60008054906101000a900460ff1681565b6000600460009054906101000a900473ffffffffffffffffffffffffffffffffffffffff16905090565b60008054906101000a900460ff16156106d957600080fd5b6106e28161108c565b610721576040517f08c379a000000000000000000000000000000000000000000000000000000000815260040161071890611771565b60405180910390fd5b6001151561072e826110fb565b151514610770576040517f08c379a000000000000000000000000000000000000000000000000000000000815260040161076790611803565b60405180910390fd5b600060026000838152602001908152602001600020905060028081111561079a57610799611391565b5b8160030160149054906101000a900460ff1660028111156107be576107bd611391565b5b146107fe576040517f08c379a00000000000000000000000000000000000000000000000000000000081526004016107f590611895565b60405180910390fd5b60008160030160146101000a81548160ff0219169083600281111561082657610825611391565b5b02179055503481600101819055505050565b6108406111ad565b600260008381526020019081526020016000206040518060a00160405290816000820154815260200160018201548152602001600282015481526020016003820160009054906101000a900473ffffffffffffffffffffffffffffffffffffffff1673ffffffffffffffffffffffffffffffffffffffff1673ffffffffffffffffffffffffffffffffffffffff1681526020016003820160149054906101000a900460ff1660028111156108f7576108f6611391565b5b600281111561090957610908611391565b5b815250509050919050565b600060016000838152602001908152602001600020549050919050565b610939610697565b73ffffffffffffffffffffffffffffffffffffffff163373ffffffffffffffffffffffffffffffffffffffff16146109a6576040517f08c379a000000000000000000000000000000000000000000000000000000000815260040161099d90611653565b60405180910390fd5b60008054906101000a900460ff16156109be57600080fd5b6109c78161108c565b6109fd576040517f4db0c48300000000000000000000000000000000000000000000000000000000815260040160405180910390fd5b600060026000838152602001908152602001600020905060006002811115610a2857610a27611391565b5b8160030160149054906101000a900460ff166002811115610a4c57610a4b611391565b5b14610a83576040517f27214a3b00000000000000000000000000000000000000000000000000000000815260040160405180910390fd5b60008160030160009054906101000a900473ffffffffffffffffffffffffffffffffffffffff1673ffffffffffffffffffffffffffffffffffffffff168260010154604051610ad1906116a4565b60006040518083038185875af1925050503d8060008114610b0e576040519150601f19603f3d011682016040523d82523d6000602084013e610b13565b606091505b5050905080610b57576040517f08c379a0000000000000000000000000000000000000000000000000000000008152600401610b4e90611927565b60405180910390fd5b60028260030160146101000a81548160ff02191690836002811115610b7f57610b7e611391565b5b021790555060008260010181905550505050565b6000600354905090565b610ba5610697565b73ffffffffffffffffffffffffffffffffffffffff163373ffffffffffffffffffffffffffffffffffffffff1614610c12576040517f08c379a0000000000000000000000000000000000000000000000000000000008152600401610c0990611653565b60405180910390fd5b60008054906101000a900460ff16610c2957600080fd5b600460009054906101000a900473ffffffffffffffffffffffffffffffffffffffff1673ffffffffffffffffffffffffffffffffffffffff16ff5b610c6c610697565b73ffffffffffffffffffffffffffffffffffffffff163373ffffffffffffffffffffffffffffffffffffffff1614610cd9576040517f08c379a0000000000000000000000000000000000000000000000000000000008152600401610cd090611653565b60405180910390fd5b60008060006101000a81548160ff021916908315150217905550565b60008054906101000a900460ff1615610d0d57600080fd5b60008233604051602001610d229291906119b0565b604051602081830303815290604052805190602001209050610d43816110fb565b15610d7a576040517fb0fc2d9700000000000000000000000000000000000000000000000000000000815260040160405180910390fd5b600060036000815480929190610d8f90611a0b565b9190505590508160016000838152602001908152602001600020819055506040518060a001604052808281526020013481526020018481526020013373ffffffffffffffffffffffffffffffffffffffff16815260200160006002811115610dfa57610df9611391565b5b8152506002600084815260200190815260200160002060008201518160000155602082015181600101556040820151816002015560608201518160030160006101000a81548173ffffffffffffffffffffffffffffffffffffffff021916908373ffffffffffffffffffffffffffffffffffffffff16021790555060808201518160030160146101000a81548160ff02191690836002811115610ea057610e9f611391565b5b021790555090505050505050565b610eb6610697565b73ffffffffffffffffffffffffffffffffffffffff163373ffffffffffffffffffffffffffffffffffffffff1614610f23576040517f08c379a0000000000000000000000000000000000000000000000000000000008152600401610f1a90611653565b60405180910390fd5b60008054906101000a900460ff16610f3a57600080fd5b6000600460009054906101000a900473ffffffffffffffffffffffffffffffffffffffff1673ffffffffffffffffffffffffffffffffffffffff1647604051610f82906116a4565b60006040518083038185875af1925050503d8060008114610fbf576040519150601f19603f3d011682016040523d82523d6000602084013e610fc4565b606091505b5050905080611008576040517f08c379a0000000000000000000000000000000000000000000000000000000008152600401610fff90611705565b60405180910390fd5b50565b611013610697565b73ffffffffffffffffffffffffffffffffffffffff163373ffffffffffffffffffffffffffffffffffffffff1614611080576040517f08c379a000000000000000000000000000000000000000000000000000000000815260040161107790611653565b60405180910390fd5b61108981611169565b50565b60008073ffffffffffffffffffffffffffffffffffffffff166002600084815260200190815260200160002060030160009054906101000a900473ffffffffffffffffffffffffffffffffffffffff1673ffffffffffffffffffffffffffffffffffffffff1614159050919050565b60003373ffffffffffffffffffffffffffffffffffffffff166002600084815260200190815260200160002060030160009054906101000a900473ffffffffffffffffffffffffffffffffffffffff1673ffffffffffffffffffffffffffffffffffffffff16149050919050565b80600460006101000a81548173ffffffffffffffffffffffffffffffffffffffff021916908373ffffffffffffffffffffffffffffffffffffffff16021790555050565b6040518060a00160405280600081526020016000815260200160008019168152602001600073ffffffffffffffffffffffffffffffffffffffff1681526020016000600281111561120157611200611391565b5b81525090565b600080fd5b6000819050919050565b61121f8161120c565b811461122a57600080fd5b50565b60008135905061123c81611216565b92915050565b60006020828403121561125857611257611207565b5b60006112668482850161122d565b91505092915050565b6000819050919050565b6112828161126f565b811461128d57600080fd5b50565b60008135905061129f81611279565b92915050565b6000602082840312156112bb576112ba611207565b5b60006112c984828501611290565b91505092915050565b60008115159050919050565b6112e7816112d2565b82525050565b600060208201905061130260008301846112de565b92915050565b600073ffffffffffffffffffffffffffffffffffffffff82169050919050565b600061133382611308565b9050919050565b61134381611328565b82525050565b600060208201905061135e600083018461133a565b92915050565b61136d8161120c565b82525050565b61137c8161126f565b82525050565b61138b81611328565b82525050565b7f4e487b7100000000000000000000000000000000000000000000000000000000600052602160045260246000fd5b600381106113d1576113d0611391565b5b50565b60008190506113e2826113c0565b919050565b60006113f2826113d4565b9050919050565b611402816113e7565b82525050565b60a08201600082015161141e6000850182611364565b5060208201516114316020850182611364565b5060408201516114446040850182611373565b5060608201516114576060850182611382565b50608082015161146a60808501826113f9565b50505050565b600060a0820190506114856000830184611408565b92915050565b6114948161126f565b82525050565b60006020820190506114af600083018461148b565b92915050565b6114be8161120c565b82525050565b60006020820190506114d960008301846114b5565b92915050565b60007fffffffffffffffffffffffffffffffff0000000000000000000000000000000082169050919050565b611514816114df565b811461151f57600080fd5b50565b6000813590506115318161150b565b92915050565b6000806040838503121561154e5761154d611207565b5b600061155c85828601611522565b925050602061156d85828601611290565b9150509250929050565b61158081611328565b811461158b57600080fd5b50565b60008135905061159d81611577565b92915050565b6000602082840312156115b9576115b8611207565b5b60006115c78482850161158e565b91505092915050565b600082825260208201905092915050565b7f546869732063616e206f6e6c7920626520646f6e6520627920636f6e7472616360008201527f74206f776e65722e000000000000000000000000000000000000000000000000602082015250565b600061163d6028836115d0565b9150611648826115e1565b604082019050919050565b6000602082019050818103600083015261166c81611630565b9050919050565b600081905092915050565b50565b600061168e600083611673565b91506116998261167e565b600082019050919050565b60006116af82611681565b9150819050919050565b7f434d502e736f6c3a205769746864726177206661696c65642e00000000000000600082015250565b60006116ef6019836115d0565b91506116fa826116b9565b602082019050919050565b6000602082019050818103600083015261171e816116e2565b9050919050565b7f436f75727365206973206e6f742079657420637265617465642e000000000000600082015250565b600061175b601a836115d0565b915061176682611725565b602082019050919050565b6000602082019050818103600083015261178a8161174e565b9050919050565b7f54686973206164647265737320646f6573206e6f74206f776e2074686973206360008201527f6f75727365207965742e00000000000000000000000000000000000000000000602082015250565b60006117ed602a836115d0565b91506117f882611791565b604082019050919050565b6000602082019050818103600083015261181c816117e0565b9050919050565b7f43616e6e6f742072657075726368617365206120636f7572736520746861742060008201527f686173206e6f74206265656e2064656163746976617465642e00000000000000602082015250565b600061187f6039836115d0565b915061188a82611823565b604082019050919050565b600060208201905081810360008301526118ae81611872565b9050919050565b7f434d502e736f6c3a205472616e7366657272696e672066756e6473206261636b60008201527f20746f20746865206f776e6572206661696c65642e2000000000000000000000602082015250565b60006119116036836115d0565b915061191c826118b5565b604082019050919050565b6000602082019050818103600083015261194081611904565b9050919050565b6000819050919050565b61196261195d826114df565b611947565b82525050565b60008160601b9050919050565b600061198082611968565b9050919050565b600061199282611975565b9050919050565b6119aa6119a582611328565b611987565b82525050565b60006119bc8285611951565b6010820191506119cc8284611999565b6014820191508190509392505050565b7f4e487b7100000000000000000000000000000000000000000000000000000000600052601160045260246000fd5b6000611a168261120c565b91507fffffffffffffffffffffffffffffffffffffffffffffffffffffffffffffffff8203611a4857611a476119dc565b5b60018201905091905056fea26469706673582212206ec6bd0c15036fcba17cd2c2767342bc363272c71b09e40237c43e71b0015d9464736f6c63430008100033",
  "immutableReferences": {},
  "source": "// SPDX-License-Identifier: MIT\npragma solidity 0.8.16;\n\ncontract CourseMarketPlace {\n\tenum State {\n\t\tPurchased,\n\t\tActivated,\n\t\tDeactivated\n\t}\n\n\tstruct Course {\n\t\tuint256 id;\n\t\tuint256 price;\n\t\tbytes32 proof;\n\t\taddress owner;\n\t\tState state;\n\t}\n\n\tbool public isStopped = false;\n\n\t// mapping of courseID to courseHash\n\tmapping(uint256 => bytes32) private ownedCourseHash;\n\n\t// mapping of courseHash to course data\n\tmapping(bytes32 => Course) private ownedCourses;\n\n\t// number of all courses + id of the course\n\tuint256 private totalOwnedCourses;\n\n\taddress payable private owner;\n\n\tconstructor() {\n\t\tsetContractOwner(msg.sender);\n\t}\n\n\tmodifier onlyOwner() {\n\t\trequire(\n\t\t\tmsg.sender == getContractOwner(),\n\t\t\t'This can only be done by contract owner.'\n\t\t);\n\t\t_;\n\t}\n\n\tmodifier onlyWhenNotStopped() {\n\t\trequire(!isStopped);\n\t\t_;\n\t}\n\n\tmodifier onlyWhenStopped() {\n\t\trequire(isStopped);\n\t\t_;\n\t}\n\n\t// enables the smart contract to accept incoming transactions directly\n\treceive() external payable {}\n\n\tfunction withdraw(uint256 withdrawAmount) external onlyOwner {\n\t\t(bool success, ) = owner.call{ value: withdrawAmount }('');\n\t\trequire(success, 'CMP.sol: Withdraw failed.');\n\t}\n\n\tfunction emergencyWithdraw() external onlyOwner onlyWhenStopped {\n\t\t(bool success, ) = owner.call{ value: address(this).balance }('');\n\t\trequire(success, 'CMP.sol: Withdraw failed.');\n\t}\n\n\tfunction selfDestruct() external onlyOwner onlyWhenStopped {\n\t\tselfdestruct(owner);\n\t}\n\n\tfunction stopContract() external onlyOwner {\n\t\tisStopped = true;\n\t}\n\n\tfunction resumeContract() external onlyOwner {\n\t\tisStopped = false;\n\t}\n\n\tfunction setContractOwner(address newOwner) private {\n\t\towner = payable(newOwner);\n\t}\n\n\tfunction _hasCourseOwnership(bytes32 courseHash) private view returns (bool) {\n\t\treturn ownedCourses[courseHash].owner == msg.sender;\n\t}\n\n\tfunction _isCourseCreated(bytes32 courseHash) private view returns (bool) {\n\t\t// return ownedCourses[courseHash].owner != address(0);\n\t\treturn\n\t\t\townedCourses[courseHash].owner !=\n\t\t\t0x0000000000000000000000000000000000000000;\n\t}\n\n\t///You already bought this course.\n\terror CourseHasOwner();\n\n\t///This address does not own this course yet.\n\terror RequesterIsNotOwner();\n\n\t///Course does not exist.\n\terror CourseIsNotCreated();\n\n\t///Course is not purchased yet.\n\terror CourseIsNotPurchased();\n\n\tfunction purchaseCourse(\n\t\tbytes16 courseID, //0x00000000000000000000000000003130\n\t\tbytes32 proof //0x0000000000000000000000000000313000000000000000000000000000003130\n\t) external payable onlyWhenNotStopped {\n\t\tbytes32 courseHash = keccak256(abi.encodePacked(courseID, msg.sender));\n\n\t\tif (_hasCourseOwnership(courseHash)) {\n\t\t\trevert CourseHasOwner();\n\t\t}\n\n\t\tuint256 id = totalOwnedCourses++;\n\n\t\townedCourseHash[id] = courseHash;\n\n\t\townedCourses[courseHash] = Course({\n\t\t\tid: id,\n\t\t\tprice: msg.value,\n\t\t\tproof: proof,\n\t\t\towner: msg.sender,\n\t\t\tstate: State.Purchased\n\t\t});\n\t}\n\n\tfunction repurchaseCourse(bytes32 courseHash)\n\t\texternal\n\t\tpayable\n\t\tonlyWhenNotStopped\n\t{\n\t\trequire(_isCourseCreated(courseHash), 'Course is not yet created.');\n\n\t\trequire(\n\t\t\t_hasCourseOwnership(courseHash) == true,\n\t\t\t'This address does not own this course yet.'\n\t\t);\n\n\t\tCourse storage course = ownedCourses[courseHash];\n\n\t\trequire(\n\t\t\tcourse.state == State.Deactivated,\n\t\t\t'Cannot repurchase a course that has not been deactivated.'\n\t\t);\n\n\t\tcourse.state = State.Purchased;\n\t\tcourse.price = msg.value;\n\t}\n\n\tfunction activateCourse(bytes32 courseHash)\n\t\texternal\n\t\tonlyOwner\n\t\tonlyWhenNotStopped\n\t{\n\t\tif (!_isCourseCreated(courseHash)) {\n\t\t\trevert CourseIsNotCreated();\n\t\t}\n\n\t\tCourse storage course = ownedCourses[courseHash];\n\n\t\tif (course.state != State.Purchased) {\n\t\t\trevert CourseIsNotPurchased();\n\t\t}\n\n\t\tcourse.state = State.Activated;\n\t}\n\n\tfunction deactivateCourse(bytes32 courseHash)\n\t\texternal\n\t\tonlyOwner\n\t\tonlyWhenNotStopped\n\t{\n\t\tif (!_isCourseCreated(courseHash)) {\n\t\t\trevert CourseIsNotCreated();\n\t\t}\n\n\t\tCourse storage course = ownedCourses[courseHash];\n\n\t\tif (course.state != State.Purchased) {\n\t\t\trevert CourseIsNotPurchased();\n\t\t}\n\n\t\t(bool success, ) = course.owner.call{ value: course.price }('');\n\t\trequire(success, 'CMP.sol: Transferring funds back to the owner failed. ');\n\n\t\tcourse.state = State.Deactivated;\n\t\tcourse.price = 0;\n\t}\n\n\tfunction transferOwnership(address newOwner) external onlyOwner {\n\t\tsetContractOwner(newOwner);\n\t}\n\n\tfunction getCourseCount() external view returns (uint256) {\n\t\treturn totalOwnedCourses;\n\t}\n\n\tfunction getCourseHashAtIndex(uint256 index) external view returns (bytes32) {\n\t\treturn ownedCourseHash[index];\n\t}\n\n\tfunction getCourseByHash(bytes32 courseHash)\n\t\texternal\n\t\tview\n\t\treturns (Course memory)\n\t{\n\t\treturn ownedCourses[courseHash];\n\t}\n\n\tfunction getContractOwner() public view returns (address) {\n\t\treturn owner;\n\t}\n}\n//0x5B38Da6a701c568545dCfcB03FcB875f56beddC4\n//keccak256 - c4eaa3558504e2baa2669001b43f359b8418b44a4477ff417b4b007d7cc86e37\n",
  "sourcePath": "/home/gregthomasandes/Documents/Programming World/Crypto_1/marketplace-eth/contracts/CourseMarketPlace.sol",
  "compiler": {
    "name": "solc",
    "version": "0.8.16+commit.07a7930e.Emscripten.clang"
  },
  "schemaVersion": "3.4.8",
  "updatedAt": "2022-09-01T10:25:03.759Z",
  "networkType": "ethereum",
  "devdoc": {
    "kind": "dev",
    "methods": {},
    "version": 1
  },
  "userdoc": {
    "errors": {
      "CourseHasOwner()": [
        {
          "notice": "You already bought this course."
        }
      ],
      "CourseIsNotCreated()": [
        {
          "notice": "Course does not exist."
        }
      ],
      "CourseIsNotPurchased()": [
        {
          "notice": "Course is not purchased yet."
        }
      ],
      "RequesterIsNotOwner()": [
        {
          "notice": "This address does not own this course yet."
        }
      ]
    },
    "kind": "user",
    "methods": {},
    "version": 1
  }
}